{
  "contractName": "TodoList",
  "abi": [
    {
      "inputs": [],
      "stateMutability": "nonpayable",
      "type": "constructor"
    },
    {
      "anonymous": false,
      "inputs": [
        {
          "indexed": false,
          "internalType": "uint256",
          "name": "id",
          "type": "uint256"
        }
      ],
      "name": "RemovedTodo",
      "type": "event"
    },
    {
      "anonymous": false,
      "inputs": [
        {
          "indexed": false,
          "internalType": "uint256",
          "name": "id",
          "type": "uint256"
        },
        {
          "indexed": false,
          "internalType": "string",
          "name": "text",
          "type": "string"
        },
        {
          "indexed": false,
          "internalType": "bool",
          "name": "completed",
          "type": "bool"
        }
      ],
      "name": "TodoCreated",
      "type": "event"
    },
    {
      "anonymous": false,
      "inputs": [
        {
          "indexed": false,
          "internalType": "uint256",
          "name": "id",
          "type": "uint256"
        },
        {
          "indexed": false,
          "internalType": "bool",
          "name": "completed",
          "type": "bool"
        }
      ],
      "name": "ToggleTodo",
      "type": "event"
    },
    {
      "inputs": [],
      "name": "todoCount",
      "outputs": [
        {
          "internalType": "uint256",
          "name": "",
          "type": "uint256"
        }
      ],
      "stateMutability": "view",
      "type": "function",
      "constant": true
    },
    {
      "inputs": [
        {
          "internalType": "uint256",
          "name": "",
          "type": "uint256"
        }
      ],
      "name": "todoIds",
      "outputs": [
        {
          "internalType": "uint256",
          "name": "",
          "type": "uint256"
        }
      ],
      "stateMutability": "view",
      "type": "function",
      "constant": true
    },
    {
      "inputs": [
        {
          "internalType": "uint256",
          "name": "",
          "type": "uint256"
        }
      ],
      "name": "todos",
      "outputs": [
        {
          "internalType": "uint256",
          "name": "id",
          "type": "uint256"
        },
        {
          "internalType": "string",
          "name": "text",
          "type": "string"
        },
        {
          "internalType": "bool",
          "name": "completed",
          "type": "bool"
        }
      ],
      "stateMutability": "view",
      "type": "function",
      "constant": true
    },
    {
      "inputs": [
        {
          "internalType": "string",
          "name": "_content",
          "type": "string"
        }
      ],
      "name": "createTodo",
      "outputs": [],
      "stateMutability": "nonpayable",
      "type": "function"
    },
    {
      "inputs": [],
      "name": "getTodoIds",
      "outputs": [
        {
          "internalType": "uint256[]",
          "name": "",
          "type": "uint256[]"
        }
      ],
      "stateMutability": "view",
      "type": "function",
      "constant": true
    },
    {
      "inputs": [
        {
          "internalType": "uint256",
          "name": "_id",
          "type": "uint256"
        }
      ],
      "name": "toggleTodo",
      "outputs": [],
      "stateMutability": "nonpayable",
      "type": "function"
    },
    {
      "inputs": [
        {
          "internalType": "uint256",
          "name": "_id",
          "type": "uint256"
        }
      ],
      "name": "removeTodo",
      "outputs": [],
      "stateMutability": "nonpayable",
      "type": "function"
    }
  ],
  "bytecode": "0x6080604052600080553480156200001557600080fd5b506200005c6040518060400160405280600b81526020017f48656c6c6f20776f726c640000000000000000000000000000000000000000008152506200006260201b60201c565b62000640565b60008081548092919062000076906200019b565b919050555060405180606001604052806000548152602001828152602001600015158152506001600080548152602001908152602001600020600082015181600001556020820151816001019081620000d0919062000458565b5060408201518160020160006101000a81548160ff021916908315150217905550905050600260005490806001815401808255809150506001900390600052602060002001600090919091909150557f216b7b554cc6be0fbaed756f9b62e83e41a91839dc1556b845c14d0f670366466000548260006040516200015793929190620005fc565b60405180910390a150565b7f4e487b7100000000000000000000000000000000000000000000000000000000600052601160045260246000fd5b6000819050919050565b6000620001a88262000191565b91507fffffffffffffffffffffffffffffffffffffffffffffffffffffffffffffffff8203620001dd57620001dc62000162565b5b600182019050919050565b600081519050919050565b7f4e487b7100000000000000000000000000000000000000000000000000000000600052604160045260246000fd5b7f4e487b7100000000000000000000000000000000000000000000000000000000600052602260045260246000fd5b600060028204905060018216806200026a57607f821691505b60208210810362000280576200027f62000222565b5b50919050565b60008190508160005260206000209050919050565b60006020601f8301049050919050565b600082821b905092915050565b600060088302620002ea7fffffffffffffffffffffffffffffffffffffffffffffffffffffffffffffffff82620002ab565b620002f68683620002ab565b95508019841693508086168417925050509392505050565b6000819050919050565b600062000339620003336200032d8462000191565b6200030e565b62000191565b9050919050565b6000819050919050565b620003558362000318565b6200036d620003648262000340565b848454620002b8565b825550505050565b600090565b6200038462000375565b620003918184846200034a565b505050565b5b81811015620003b957620003ad6000826200037a565b60018101905062000397565b5050565b601f8211156200040857620003d28162000286565b620003dd846200029b565b81016020851015620003ed578190505b62000405620003fc856200029b565b83018262000396565b50505b505050565b600082821c905092915050565b60006200042d600019846008026200040d565b1980831691505092915050565b60006200044883836200041a565b9150826002028217905092915050565b6200046382620001e8565b67ffffffffffffffff8111156200047f576200047e620001f3565b5b6200048b825462000251565b62000498828285620003bd565b600060209050601f831160018114620004d05760008415620004bb578287015190505b620004c785826200043a565b86555062000537565b601f198416620004e08662000286565b60005b828110156200050a57848901518255600182019150602085019450602081019050620004e3565b868310156200052a578489015162000526601f8916826200041a565b8355505b6001600288020188555050505b505050505050565b6200054a8162000191565b82525050565b600082825260208201905092915050565b60005b838110156200058157808201518184015260208101905062000564565b60008484015250505050565b6000601f19601f8301169050919050565b6000620005ab82620001e8565b620005b7818562000550565b9350620005c981856020860162000561565b620005d4816200058d565b840191505092915050565b60008115159050919050565b620005f681620005df565b82525050565b60006060820190506200061360008301866200053f565b81810360208301526200062781856200059e565b9050620006386040830184620005eb565b949350505050565b610daa80620006506000396000f3fe608060405234801561001057600080fd5b506004361061007d5760003560e01c8063dc00282c1161005b578063dc00282c14610100578063e34f12211461011c578063f77d85b714610138578063fe0dee17146101565761007d565b806303c5c31f146100825780633be3d703146100b2578063bc8bc2b4146100ce575b600080fd5b61009c60048036038101906100979190610658565b610174565b6040516100a99190610694565b60405180910390f35b6100cc60048036038101906100c79190610658565b610198565b005b6100e860048036038101906100e39190610658565b610214565b6040516100f79392919061075a565b60405180910390f35b61011a60048036038101906101159190610658565b6102d3565b005b610136600480360381019061013191906108cd565b610459565b005b610140610553565b60405161014d91906109d4565b60405180910390f35b61015e6105ab565b60405161016b9190610694565b60405180910390f35b6002818154811061018457600080fd5b906000526020600020016000915090505481565b600160008281526020019081526020016000206000808201600090556001820160006101c491906105b1565b6002820160006101000a81549060ff021916905550507f7adff8fc364e33565b2f45688f2c04f14a96a4fac766a2c7d9b9a90b5e947d71816040516102099190610694565b60405180910390a150565b600160205280600052604060002060009150905080600001549080600101805461023d90610a25565b80601f016020809104026020016040519081016040528092919081815260200182805461026990610a25565b80156102b65780601f1061028b576101008083540402835291602001916102b6565b820191906000526020600020905b81548152906001019060200180831161029957829003601f168201915b5050505050908060020160009054906101000a900460ff16905083565b6000600160008381526020019081526020016000206040518060600160405290816000820154815260200160018201805461030d90610a25565b80601f016020809104026020016040519081016040528092919081815260200182805461033990610a25565b80156103865780601f1061035b57610100808354040283529160200191610386565b820191906000526020600020905b81548152906001019060200180831161036957829003601f168201915b505050505081526020016002820160009054906101000a900460ff161515151581525050905080604001511581604001901515908115158152505080600160008481526020019081526020016000206000820151816000015560208201518160010190816103f49190610c02565b5060408201518160020160006101000a81548160ff0219169083151502179055509050507f04b687db4301294251458feddfaea8b5012b1923469412e50508c75d2d83a4a882826040015160405161044d929190610cd4565b60405180910390a15050565b60008081548092919061046b90610d2c565b9190505550604051806060016040528060005481526020018281526020016000151581525060016000805481526020019081526020016000206000820151816000015560208201518160010190816104c39190610c02565b5060408201518160020160006101000a81548160ff021916908315150217905550905050600260005490806001815401808255809150506001900390600052602060002001600090919091909150557f216b7b554cc6be0fbaed756f9b62e83e41a91839dc1556b845c14d0f670366466000548260006040516105489392919061075a565b60405180910390a150565b606060028054806020026020016040519081016040528092919081815260200182805480156105a157602002820191906000526020600020905b81548152602001906001019080831161058d575b5050505050905090565b60005481565b5080546105bd90610a25565b6000825580601f106105cf57506105ee565b601f0160209004906000526020600020908101906105ed91906105f1565b5b50565b5b8082111561060a5760008160009055506001016105f2565b5090565b6000604051905090565b600080fd5b600080fd5b6000819050919050565b61063581610622565b811461064057600080fd5b50565b6000813590506106528161062c565b92915050565b60006020828403121561066e5761066d610618565b5b600061067c84828501610643565b91505092915050565b61068e81610622565b82525050565b60006020820190506106a96000830184610685565b92915050565b600081519050919050565b600082825260208201905092915050565b60005b838110156106e95780820151818401526020810190506106ce565b60008484015250505050565b6000601f19601f8301169050919050565b6000610711826106af565b61071b81856106ba565b935061072b8185602086016106cb565b610734816106f5565b840191505092915050565b60008115159050919050565b6107548161073f565b82525050565b600060608201905061076f6000830186610685565b81810360208301526107818185610706565b9050610790604083018461074b565b949350505050565b600080fd5b600080fd5b7f4e487b7100000000000000000000000000000000000000000000000000000000600052604160045260246000fd5b6107da826106f5565b810181811067ffffffffffffffff821117156107f9576107f86107a2565b5b80604052505050565b600061080c61060e565b905061081882826107d1565b919050565b600067ffffffffffffffff821115610838576108376107a2565b5b610841826106f5565b9050602081019050919050565b82818337600083830152505050565b600061087061086b8461081d565b610802565b90508281526020810184848401111561088c5761088b61079d565b5b61089784828561084e565b509392505050565b600082601f8301126108b4576108b3610798565b5b81356108c484826020860161085d565b91505092915050565b6000602082840312156108e3576108e2610618565b5b600082013567ffffffffffffffff8111156109015761090061061d565b5b61090d8482850161089f565b91505092915050565b600081519050919050565b600082825260208201905092915050565b6000819050602082019050919050565b61094b81610622565b82525050565b600061095d8383610942565b60208301905092915050565b6000602082019050919050565b600061098182610916565b61098b8185610921565b935061099683610932565b8060005b838110156109c75781516109ae8882610951565b97506109b983610969565b92505060018101905061099a565b5085935050505092915050565b600060208201905081810360008301526109ee8184610976565b905092915050565b7f4e487b7100000000000000000000000000000000000000000000000000000000600052602260045260246000fd5b60006002820490506001821680610a3d57607f821691505b602082108103610a5057610a4f6109f6565b5b50919050565b60008190508160005260206000209050919050565b60006020601f8301049050919050565b600082821b905092915050565b600060088302610ab87fffffffffffffffffffffffffffffffffffffffffffffffffffffffffffffffff82610a7b565b610ac28683610a7b565b95508019841693508086168417925050509392505050565b6000819050919050565b6000610aff610afa610af584610622565b610ada565b610622565b9050919050565b6000819050919050565b610b1983610ae4565b610b2d610b2582610b06565b848454610a88565b825550505050565b600090565b610b42610b35565b610b4d818484610b10565b505050565b5b81811015610b7157610b66600082610b3a565b600181019050610b53565b5050565b601f821115610bb657610b8781610a56565b610b9084610a6b565b81016020851015610b9f578190505b610bb3610bab85610a6b565b830182610b52565b50505b505050565b600082821c905092915050565b6000610bd960001984600802610bbb565b1980831691505092915050565b6000610bf28383610bc8565b9150826002028217905092915050565b610c0b826106af565b67ffffffffffffffff811115610c2457610c236107a2565b5b610c2e8254610a25565b610c39828285610b75565b600060209050601f831160018114610c6c5760008415610c5a578287015190505b610c648582610be6565b865550610ccc565b601f198416610c7a86610a56565b60005b82811015610ca257848901518255600182019150602085019450602081019050610c7d565b86831015610cbf5784890151610cbb601f891682610bc8565b8355505b6001600288020188555050505b505050505050565b6000604082019050610ce96000830185610685565b610cf6602083018461074b565b9392505050565b7f4e487b7100000000000000000000000000000000000000000000000000000000600052601160045260246000fd5b6000610d3782610622565b91507fffffffffffffffffffffffffffffffffffffffffffffffffffffffffffffffff8203610d6957610d68610cfd565b5b60018201905091905056fea264697066735822122019f9a3735608371ee2e63fbf2d1f1b820715f1a31398a3ec1a896d968437c5ea64736f6c63430008110033",
  "immutableReferences": {},
  "source": "// SPDX-License-Identifier: MIT\r\npragma solidity >=0.4.22 <0.9.0;\r\n\r\ncontract TodoList {\r\n    uint256 public todoCount = 0;\r\n\r\n    struct Todo {\r\n        uint256 id;\r\n        string text;\r\n        bool completed;\r\n    }\r\n\r\n    mapping(uint256 => Todo) public todos;\r\n    uint256[] public todoIds; // Ny array fr att spara todo-ID:n\r\n\r\n    event TodoCreated(uint256 id, string text, bool completed);\r\n    event ToggleTodo(uint256 id, bool completed);\r\n    event RemovedTodo(uint256 id);\r\n\r\n    function createTodo(string memory _content) public {\r\n        todoCount++;\r\n        todos[todoCount] = Todo(todoCount, _content, false);\r\n        todoIds.push(todoCount); // Lgg till det nya todo-ID:t i arrayen\r\n        emit TodoCreated(todoCount, _content, false);\r\n    }\r\n\r\n    // Ny funktion fr att hmta en lista ver todo-ID:n\r\n    function getTodoIds() public view returns (uint256[] memory) {\r\n        return todoIds;\r\n    }\r\n\r\n    function toggleTodo(uint256 _id) public {\r\n        Todo memory t = todos[_id];\r\n        t.completed = !t.completed;\r\n        todos[_id] = t;\r\n        emit ToggleTodo(_id, t.completed);\r\n    }\r\n\r\n    function removeTodo(uint256 _id) public {\r\n        delete todos[_id];\r\n        emit RemovedTodo(_id);\r\n    }\r\n\r\n    constructor() public {\r\n        createTodo(\"Hello world\");\r\n    }\r\n}\r\n",
  "sourcePath": "C:\\Users\\HediG\\Desktop\\Inlmningsuppgift 2\\the-todos-revisited-hedigardi\\eth-todo-list\\contracts\\TodoList.sol",
  "compiler": {
    "name": "solc",
    "version": "0.8.17+commit.8df45f5f.Emscripten.clang"
  },
  "schemaVersion": "3.4.16",
  "updatedAt": "2024-03-19T15:11:55.488Z",
  "networkType": "ethereum",
  "devdoc": {
    "kind": "dev",
    "methods": {},
    "version": 1
  },
  "userdoc": {
    "kind": "user",
    "methods": {},
    "version": 1
  }
}